{
  "contractName": "PersonId",
  "abi": [
    {
      "inputs": [],
      "stateMutability": "nonpayable",
      "type": "constructor"
    },
    {
      "anonymous": false,
      "inputs": [
        {
          "indexed": true,
          "internalType": "address",
          "name": "owner",
          "type": "address"
        },
        {
          "indexed": true,
          "internalType": "address",
          "name": "approved",
          "type": "address"
        },
        {
          "indexed": true,
          "internalType": "uint256",
          "name": "tokenId",
          "type": "uint256"
        }
      ],
      "name": "Approval",
      "type": "event"
    },
    {
      "anonymous": false,
      "inputs": [
        {
          "indexed": true,
          "internalType": "address",
          "name": "owner",
          "type": "address"
        },
        {
          "indexed": true,
          "internalType": "address",
          "name": "operator",
          "type": "address"
        },
        {
          "indexed": false,
          "internalType": "bool",
          "name": "approved",
          "type": "bool"
        }
      ],
      "name": "ApprovalForAll",
      "type": "event"
    },
    {
      "anonymous": false,
      "inputs": [
        {
          "indexed": true,
          "internalType": "address",
          "name": "from",
          "type": "address"
        },
        {
          "indexed": true,
          "internalType": "address",
          "name": "to",
          "type": "address"
        },
        {
          "indexed": true,
          "internalType": "uint256",
          "name": "tokenId",
          "type": "uint256"
        }
      ],
      "name": "Transfer",
      "type": "event"
    },
    {
      "inputs": [
        {
          "internalType": "address",
          "name": "to",
          "type": "address"
        },
        {
          "internalType": "uint256",
          "name": "tokenId",
          "type": "uint256"
        }
      ],
      "name": "approve",
      "outputs": [],
      "stateMutability": "nonpayable",
      "type": "function"
    },
    {
      "inputs": [
        {
          "internalType": "address",
          "name": "owner",
          "type": "address"
        }
      ],
      "name": "balanceOf",
      "outputs": [
        {
          "internalType": "uint256",
          "name": "",
          "type": "uint256"
        }
      ],
      "stateMutability": "view",
      "type": "function"
    },
    {
      "inputs": [
        {
          "internalType": "uint256",
          "name": "",
          "type": "uint256"
        }
      ],
      "name": "data",
      "outputs": [
        {
          "internalType": "string",
          "name": "",
          "type": "string"
        }
      ],
      "stateMutability": "view",
      "type": "function"
    },
    {
      "inputs": [
        {
          "internalType": "uint256",
          "name": "tokenId",
          "type": "uint256"
        }
      ],
      "name": "getApproved",
      "outputs": [
        {
          "internalType": "address",
          "name": "",
          "type": "address"
        }
      ],
      "stateMutability": "view",
      "type": "function"
    },
    {
      "inputs": [
        {
          "internalType": "address",
          "name": "owner",
          "type": "address"
        },
        {
          "internalType": "address",
          "name": "operator",
          "type": "address"
        }
      ],
      "name": "isApprovedForAll",
      "outputs": [
        {
          "internalType": "bool",
          "name": "",
          "type": "bool"
        }
      ],
      "stateMutability": "view",
      "type": "function"
    },
    {
      "inputs": [],
      "name": "name",
      "outputs": [
        {
          "internalType": "string",
          "name": "",
          "type": "string"
        }
      ],
      "stateMutability": "view",
      "type": "function"
    },
    {
      "inputs": [
        {
          "internalType": "uint256",
          "name": "",
          "type": "uint256"
        }
      ],
      "name": "names",
      "outputs": [
        {
          "internalType": "string",
          "name": "",
          "type": "string"
        }
      ],
      "stateMutability": "view",
      "type": "function"
    },
    {
      "inputs": [
        {
          "internalType": "uint256",
          "name": "tokenId",
          "type": "uint256"
        }
      ],
      "name": "ownerOf",
      "outputs": [
        {
          "internalType": "address",
          "name": "",
          "type": "address"
        }
      ],
      "stateMutability": "view",
      "type": "function"
    },
    {
      "inputs": [
        {
          "internalType": "address",
          "name": "from",
          "type": "address"
        },
        {
          "internalType": "address",
          "name": "to",
          "type": "address"
        },
        {
          "internalType": "uint256",
          "name": "tokenId",
          "type": "uint256"
        }
      ],
      "name": "safeTransferFrom",
      "outputs": [],
      "stateMutability": "nonpayable",
      "type": "function"
    },
    {
      "inputs": [
        {
          "internalType": "address",
          "name": "from",
          "type": "address"
        },
        {
          "internalType": "address",
          "name": "to",
          "type": "address"
        },
        {
          "internalType": "uint256",
          "name": "tokenId",
          "type": "uint256"
        },
        {
          "internalType": "bytes",
          "name": "_data",
          "type": "bytes"
        }
      ],
      "name": "safeTransferFrom",
      "outputs": [],
      "stateMutability": "nonpayable",
      "type": "function"
    },
    {
      "inputs": [
        {
          "internalType": "address",
          "name": "operator",
          "type": "address"
        },
        {
          "internalType": "bool",
          "name": "approved",
          "type": "bool"
        }
      ],
      "name": "setApprovalForAll",
      "outputs": [],
      "stateMutability": "nonpayable",
      "type": "function"
    },
    {
      "inputs": [
        {
          "internalType": "bytes4",
          "name": "interfaceId",
          "type": "bytes4"
        }
      ],
      "name": "supportsInterface",
      "outputs": [
        {
          "internalType": "bool",
          "name": "",
          "type": "bool"
        }
      ],
      "stateMutability": "view",
      "type": "function"
    },
    {
      "inputs": [],
      "name": "symbol",
      "outputs": [
        {
          "internalType": "string",
          "name": "",
          "type": "string"
        }
      ],
      "stateMutability": "view",
      "type": "function"
    },
    {
      "inputs": [],
      "name": "tokenCounter",
      "outputs": [
        {
          "internalType": "uint256",
          "name": "",
          "type": "uint256"
        }
      ],
      "stateMutability": "view",
      "type": "function"
    },
    {
      "inputs": [
        {
          "internalType": "uint256",
          "name": "tokenId",
          "type": "uint256"
        }
      ],
      "name": "tokenURI",
      "outputs": [
        {
          "internalType": "string",
          "name": "",
          "type": "string"
        }
      ],
      "stateMutability": "view",
      "type": "function"
    },
    {
      "inputs": [
        {
          "internalType": "address",
          "name": "from",
          "type": "address"
        },
        {
          "internalType": "address",
          "name": "to",
          "type": "address"
        },
        {
          "internalType": "uint256",
          "name": "tokenId",
          "type": "uint256"
        }
      ],
      "name": "transferFrom",
      "outputs": [],
      "stateMutability": "nonpayable",
      "type": "function"
    },
    {
      "inputs": [
        {
          "internalType": "string",
          "name": "_name",
          "type": "string"
        },
        {
          "internalType": "string",
          "name": "_data",
          "type": "string"
        }
      ],
      "name": "mint",
      "outputs": [],
      "stateMutability": "nonpayable",
      "type": "function"
    }
  ],
  "bytecode": "0x60806040523480156200001157600080fd5b506040518060400160405280600881526020017f506572736f6e49640000000000000000000000000000000000000000000000008152506040518060400160405280600381526020017f504944000000000000000000000000000000000000000000000000000000000081525081600090816200008f91906200032c565b508060019081620000a191906200032c565b505050600160088190555062000413565b600081519050919050565b7f4e487b7100000000000000000000000000000000000000000000000000000000600052604160045260246000fd5b7f4e487b7100000000000000000000000000000000000000000000000000000000600052602260045260246000fd5b600060028204905060018216806200013457607f821691505b6020821081036200014a5762000149620000ec565b5b50919050565b60008190508160005260206000209050919050565b60006020601f8301049050919050565b600082821b905092915050565b600060088302620001b47fffffffffffffffffffffffffffffffffffffffffffffffffffffffffffffffff8262000175565b620001c0868362000175565b95508019841693508086168417925050509392505050565b6000819050919050565b6000819050919050565b60006200020d620002076200020184620001d8565b620001e2565b620001d8565b9050919050565b6000819050919050565b6200022983620001ec565b62000241620002388262000214565b84845462000182565b825550505050565b600090565b6200025862000249565b620002658184846200021e565b505050565b5b818110156200028d57620002816000826200024e565b6001810190506200026b565b5050565b601f821115620002dc57620002a68162000150565b620002b18462000165565b81016020851015620002c1578190505b620002d9620002d08562000165565b8301826200026a565b50505b505050565b600082821c905092915050565b60006200030160001984600802620002e1565b1980831691505092915050565b60006200031c8383620002ee565b9150826002028217905092915050565b6200033782620000b2565b67ffffffffffffffff811115620003535762000352620000bd565b5b6200035f82546200011b565b6200036c82828562000291565b600060209050601f831160018114620003a457600084156200038f578287015190505b6200039b85826200030e565b8655506200040b565b601f198416620003b48662000150565b60005b82811015620003de57848901518255600182019150602085019450602081019050620003b7565b86831015620003fe5784890151620003fa601f891682620002ee565b8355505b6001600288020188555050505b505050505050565b612cb680620004236000396000f3fe608060405234801561001057600080fd5b506004361061010b5760003560e01c806370a08231116100a2578063b88d4fde11610071578063b88d4fde146102c8578063c87b56dd146102e4578063d082e38114610314578063e985e9c514610332578063f0ba8440146103625761010b565b806370a08231146102425780638aa0fdad1461027257806395d89b411461028e578063a22cb465146102ac5761010b565b806323b872dd116100de57806323b872dd146101aa57806342842e0e146101c65780634622ab03146101e25780636352211e146102125761010b565b806301ffc9a71461011057806306fdde0314610140578063081812fc1461015e578063095ea7b31461018e575b600080fd5b61012a600480360381019061012591906118a4565b610392565b60405161013791906118ec565b60405180910390f35b610148610474565b60405161015591906119a0565b60405180910390f35b610178600480360381019061017391906119f8565b610506565b6040516101859190611a66565b60405180910390f35b6101a860048036038101906101a39190611aad565b61058b565b005b6101c460048036038101906101bf9190611aed565b6106a2565b005b6101e060048036038101906101db9190611aed565b610702565b005b6101fc60048036038101906101f791906119f8565b610722565b60405161020991906119a0565b60405180910390f35b61022c600480360381019061022791906119f8565b6107ce565b6040516102399190611a66565b60405180910390f35b61025c60048036038101906102579190611b40565b61087f565b6040516102699190611b7c565b60405180910390f35b61028c60048036038101906102879190611ccc565b610936565b005b6102966109c8565b6040516102a391906119a0565b60405180910390f35b6102c660048036038101906102c19190611d70565b610a5a565b005b6102e260048036038101906102dd9190611e51565b610bda565b005b6102fe60048036038101906102f991906119f8565b610c3c565b60405161030b91906119a0565b60405180910390f35b61031c610ce3565b6040516103299190611b7c565b60405180910390f35b61034c60048036038101906103479190611ed4565b610ce9565b60405161035991906118ec565b60405180910390f35b61037c600480360381019061037791906119f8565b610d7d565b60405161038991906119a0565b60405180910390f35b60007f80ac58cd000000000000000000000000000000000000000000000000000000007bffffffffffffffffffffffffffffffffffffffffffffffffffffffff1916827bffffffffffffffffffffffffffffffffffffffffffffffffffffffff1916148061045d57507f5b5e139f000000000000000000000000000000000000000000000000000000007bffffffffffffffffffffffffffffffffffffffffffffffffffffffff1916827bffffffffffffffffffffffffffffffffffffffffffffffffffffffff1916145b8061046d575061046c82610e29565b5b9050919050565b60606000805461048390611f43565b80601f01602080910402602001604051908101604052809291908181526020018280546104af90611f43565b80156104fc5780601f106104d1576101008083540402835291602001916104fc565b820191906000526020600020905b8154815290600101906020018083116104df57829003601f168201915b5050505050905090565b600061051182610e93565b610550576040517f08c379a000000000000000000000000000000000000000000000000000000000815260040161054790611fe6565b60405180910390fd5b6004600083815260200190815260200160002060009054906101000a900473ffffffffffffffffffffffffffffffffffffffff169050919050565b6000610596826107ce565b90508073ffffffffffffffffffffffffffffffffffffffff168373ffffffffffffffffffffffffffffffffffffffff1603610606576040517f08c379a00000000000000000000000000000000000000000000000000000000081526004016105fd90612078565b60405180910390fd5b8073ffffffffffffffffffffffffffffffffffffffff16610625610eff565b73ffffffffffffffffffffffffffffffffffffffff16148061065457506106538161064e610eff565b610ce9565b5b610693576040517f08c379a000000000000000000000000000000000000000000000000000000000815260040161068a9061210a565b60405180910390fd5b61069d8383610f07565b505050565b6106b36106ad610eff565b82610fc0565b6106f2576040517f08c379a00000000000000000000000000000000000000000000000000000000081526004016106e99061219c565b60405180910390fd5b6106fd83838361109e565b505050565b61071d83838360405180602001604052806000815250610bda565b505050565b6006818154811061073257600080fd5b90600052602060002001600091509050805461074d90611f43565b80601f016020809104026020016040519081016040528092919081815260200182805461077990611f43565b80156107c65780601f1061079b576101008083540402835291602001916107c6565b820191906000526020600020905b8154815290600101906020018083116107a957829003601f168201915b505050505081565b6000806002600084815260200190815260200160002060009054906101000a900473ffffffffffffffffffffffffffffffffffffffff169050600073ffffffffffffffffffffffffffffffffffffffff168173ffffffffffffffffffffffffffffffffffffffff1603610876576040517f08c379a000000000000000000000000000000000000000000000000000000000815260040161086d9061222e565b60405180910390fd5b80915050919050565b60008073ffffffffffffffffffffffffffffffffffffffff168273ffffffffffffffffffffffffffffffffffffffff16036108ef576040517f08c379a00000000000000000000000000000000000000000000000000000000081526004016108e6906122c0565b60405180910390fd5b600360008373ffffffffffffffffffffffffffffffffffffffff1673ffffffffffffffffffffffffffffffffffffffff168152602001908152602001600020549050919050565b60068290806001815401808255809150506001900390600052602060002001600090919091909150908161096a919061248c565b5060078190806001815401808255809150506001900390600052602060002001600090919091909150908161099f919061248c565b506109ac336008546112f9565b600860008154809291906109bf9061258d565b91905055505050565b6060600180546109d790611f43565b80601f0160208091040260200160405190810160405280929190818152602001828054610a0390611f43565b8015610a505780601f10610a2557610100808354040283529160200191610a50565b820191906000526020600020905b815481529060010190602001808311610a3357829003601f168201915b5050505050905090565b610a62610eff565b73ffffffffffffffffffffffffffffffffffffffff168273ffffffffffffffffffffffffffffffffffffffff1603610acf576040517f08c379a0000000000000000000000000000000000000000000000000000000008152600401610ac690612621565b60405180910390fd5b8060056000610adc610eff565b73ffffffffffffffffffffffffffffffffffffffff1673ffffffffffffffffffffffffffffffffffffffff16815260200190815260200160002060008473ffffffffffffffffffffffffffffffffffffffff1673ffffffffffffffffffffffffffffffffffffffff16815260200190815260200160002060006101000a81548160ff0219169083151502179055508173ffffffffffffffffffffffffffffffffffffffff16610b89610eff565b73ffffffffffffffffffffffffffffffffffffffff167f17307eab39ab6107e8899845ad3d59bd9653f200f220920489ca2b5937696c3183604051610bce91906118ec565b60405180910390a35050565b610beb610be5610eff565b83610fc0565b610c2a576040517f08c379a0000000000000000000000000000000000000000000000000000000008152600401610c219061219c565b60405180910390fd5b610c36848484846114c6565b50505050565b6060610c4782610e93565b610c86576040517f08c379a0000000000000000000000000000000000000000000000000000000008152600401610c7d906126b3565b60405180910390fd5b6000610c90611522565b90506000815111610cb05760405180602001604052806000815250610cdb565b80610cba84611539565b604051602001610ccb92919061270f565b6040516020818303038152906040525b915050919050565b60085481565b6000600560008473ffffffffffffffffffffffffffffffffffffffff1673ffffffffffffffffffffffffffffffffffffffff16815260200190815260200160002060008373ffffffffffffffffffffffffffffffffffffffff1673ffffffffffffffffffffffffffffffffffffffff16815260200190815260200160002060009054906101000a900460ff16905092915050565b60078181548110610d8d57600080fd5b906000526020600020016000915090508054610da890611f43565b80601f0160208091040260200160405190810160405280929190818152602001828054610dd490611f43565b8015610e215780601f10610df657610100808354040283529160200191610e21565b820191906000526020600020905b815481529060010190602001808311610e0457829003601f168201915b505050505081565b60007f01ffc9a7000000000000000000000000000000000000000000000000000000007bffffffffffffffffffffffffffffffffffffffffffffffffffffffff1916827bffffffffffffffffffffffffffffffffffffffffffffffffffffffff1916149050919050565b60008073ffffffffffffffffffffffffffffffffffffffff166002600084815260200190815260200160002060009054906101000a900473ffffffffffffffffffffffffffffffffffffffff1673ffffffffffffffffffffffffffffffffffffffff1614159050919050565b600033905090565b816004600083815260200190815260200160002060006101000a81548173ffffffffffffffffffffffffffffffffffffffff021916908373ffffffffffffffffffffffffffffffffffffffff160217905550808273ffffffffffffffffffffffffffffffffffffffff16610f7a836107ce565b73ffffffffffffffffffffffffffffffffffffffff167f8c5be1e5ebec7d5bd14f71427d1e84f3dd0314c0f7b2291e5b200ac8c7c3b92560405160405180910390a45050565b6000610fcb82610e93565b61100a576040517f08c379a0000000000000000000000000000000000000000000000000000000008152600401611001906127a5565b60405180910390fd5b6000611015836107ce565b90508073ffffffffffffffffffffffffffffffffffffffff168473ffffffffffffffffffffffffffffffffffffffff16148061108457508373ffffffffffffffffffffffffffffffffffffffff1661106c84610506565b73ffffffffffffffffffffffffffffffffffffffff16145b8061109557506110948185610ce9565b5b91505092915050565b8273ffffffffffffffffffffffffffffffffffffffff166110be826107ce565b73ffffffffffffffffffffffffffffffffffffffff1614611114576040517f08c379a000000000000000000000000000000000000000000000000000000000815260040161110b90612837565b60405180910390fd5b600073ffffffffffffffffffffffffffffffffffffffff168273ffffffffffffffffffffffffffffffffffffffff1603611183576040517f08c379a000000000000000000000000000000000000000000000000000000000815260040161117a906128c9565b60405180910390fd5b61118e838383611699565b611199600082610f07565b6001600360008573ffffffffffffffffffffffffffffffffffffffff1673ffffffffffffffffffffffffffffffffffffffff16815260200190815260200160002060008282546111e991906128e9565b925050819055506001600360008473ffffffffffffffffffffffffffffffffffffffff1673ffffffffffffffffffffffffffffffffffffffff1681526020019081526020016000206000828254611240919061291d565b92505081905550816002600083815260200190815260200160002060006101000a81548173ffffffffffffffffffffffffffffffffffffffff021916908373ffffffffffffffffffffffffffffffffffffffff160217905550808273ffffffffffffffffffffffffffffffffffffffff168473ffffffffffffffffffffffffffffffffffffffff167fddf252ad1be2c89b69c2b068fc378daa952ba7f163c4a11628f55a4df523b3ef60405160405180910390a4505050565b600073ffffffffffffffffffffffffffffffffffffffff168273ffffffffffffffffffffffffffffffffffffffff1603611368576040517f08c379a000000000000000000000000000000000000000000000000000000000815260040161135f906129bf565b60405180910390fd5b61137181610e93565b156113b1576040517f08c379a00000000000000000000000000000000000000000000000000000000081526004016113a890612a2b565b60405180910390fd5b6113bd60008383611699565b6001600360008473ffffffffffffffffffffffffffffffffffffffff1673ffffffffffffffffffffffffffffffffffffffff168152602001908152602001600020600082825461140d919061291d565b92505081905550816002600083815260200190815260200160002060006101000a81548173ffffffffffffffffffffffffffffffffffffffff021916908373ffffffffffffffffffffffffffffffffffffffff160217905550808273ffffffffffffffffffffffffffffffffffffffff16600073ffffffffffffffffffffffffffffffffffffffff167fddf252ad1be2c89b69c2b068fc378daa952ba7f163c4a11628f55a4df523b3ef60405160405180910390a45050565b6114d184848461109e565b6114dd8484848461169e565b61151c576040517f08c379a000000000000000000000000000000000000000000000000000000000815260040161151390612abd565b60405180910390fd5b50505050565b606060405180602001604052806000815250905090565b606060008203611580576040518060400160405280600181526020017f30000000000000000000000000000000000000000000000000000000000000008152509050611694565b600082905060005b600082146115b257808061159b9061258d565b915050600a826115ab9190612b0c565b9150611588565b60008167ffffffffffffffff8111156115ce576115cd611ba1565b5b6040519080825280601f01601f1916602001820160405280156116005781602001600182028036833780820191505090505b5090505b6000851461168d5760018261161991906128e9565b9150600a856116289190612b3d565b6030611634919061291d565b60f81b81838151811061164a57611649612b6e565b5b60200101907effffffffffffffffffffffffffffffffffffffffffffffffffffffffffffff1916908160001a905350600a856116869190612b0c565b9450611604565b8093505050505b919050565b505050565b60006116bf8473ffffffffffffffffffffffffffffffffffffffff16611825565b15611818578373ffffffffffffffffffffffffffffffffffffffff1663150b7a026116e8610eff565b8786866040518563ffffffff1660e01b815260040161170a9493929190612bf2565b6020604051808303816000875af192505050801561174657506040513d601f19601f820116820180604052508101906117439190612c53565b60015b6117c8573d8060008114611776576040519150601f19603f3d011682016040523d82523d6000602084013e61177b565b606091505b5060008151036117c0576040517f08c379a00000000000000000000000000000000000000000000000000000000081526004016117b790612abd565b60405180910390fd5b805181602001fd5b63150b7a0260e01b7bffffffffffffffffffffffffffffffffffffffffffffffffffffffff1916817bffffffffffffffffffffffffffffffffffffffffffffffffffffffff19161491505061181d565b600190505b949350505050565b600080823b905060008111915050919050565b6000604051905090565b600080fd5b600080fd5b60007fffffffff0000000000000000000000000000000000000000000000000000000082169050919050565b6118818161184c565b811461188c57600080fd5b50565b60008135905061189e81611878565b92915050565b6000602082840312156118ba576118b9611842565b5b60006118c88482850161188f565b91505092915050565b60008115159050919050565b6118e6816118d1565b82525050565b600060208201905061190160008301846118dd565b92915050565b600081519050919050565b600082825260208201905092915050565b60005b83811015611941578082015181840152602081019050611926565b83811115611950576000848401525b50505050565b6000601f19601f8301169050919050565b600061197282611907565b61197c8185611912565b935061198c818560208601611923565b61199581611956565b840191505092915050565b600060208201905081810360008301526119ba8184611967565b905092915050565b6000819050919050565b6119d5816119c2565b81146119e057600080fd5b50565b6000813590506119f2816119cc565b92915050565b600060208284031215611a0e57611a0d611842565b5b6000611a1c848285016119e3565b91505092915050565b600073ffffffffffffffffffffffffffffffffffffffff82169050919050565b6000611a5082611a25565b9050919050565b611a6081611a45565b82525050565b6000602082019050611a7b6000830184611a57565b92915050565b611a8a81611a45565b8114611a9557600080fd5b50565b600081359050611aa781611a81565b92915050565b60008060408385031215611ac457611ac3611842565b5b6000611ad285828601611a98565b9250506020611ae3858286016119e3565b9150509250929050565b600080600060608486031215611b0657611b05611842565b5b6000611b1486828701611a98565b9350506020611b2586828701611a98565b9250506040611b36868287016119e3565b9150509250925092565b600060208284031215611b5657611b55611842565b5b6000611b6484828501611a98565b91505092915050565b611b76816119c2565b82525050565b6000602082019050611b916000830184611b6d565b92915050565b600080fd5b600080fd5b7f4e487b7100000000000000000000000000000000000000000000000000000000600052604160045260246000fd5b611bd982611956565b810181811067ffffffffffffffff82111715611bf857611bf7611ba1565b5b80604052505050565b6000611c0b611838565b9050611c178282611bd0565b919050565b600067ffffffffffffffff821115611c3757611c36611ba1565b5b611c4082611956565b9050602081019050919050565b82818337600083830152505050565b6000611c6f611c6a84611c1c565b611c01565b905082815260208101848484011115611c8b57611c8a611b9c565b5b611c96848285611c4d565b509392505050565b600082601f830112611cb357611cb2611b97565b5b8135611cc3848260208601611c5c565b91505092915050565b60008060408385031215611ce357611ce2611842565b5b600083013567ffffffffffffffff811115611d0157611d00611847565b5b611d0d85828601611c9e565b925050602083013567ffffffffffffffff811115611d2e57611d2d611847565b5b611d3a85828601611c9e565b9150509250929050565b611d4d816118d1565b8114611d5857600080fd5b50565b600081359050611d6a81611d44565b92915050565b60008060408385031215611d8757611d86611842565b5b6000611d9585828601611a98565b9250506020611da685828601611d5b565b9150509250929050565b600067ffffffffffffffff821115611dcb57611dca611ba1565b5b611dd482611956565b9050602081019050919050565b6000611df4611def84611db0565b611c01565b905082815260208101848484011115611e1057611e0f611b9c565b5b611e1b848285611c4d565b509392505050565b600082601f830112611e3857611e37611b97565b5b8135611e48848260208601611de1565b91505092915050565b60008060008060808587031215611e6b57611e6a611842565b5b6000611e7987828801611a98565b9450506020611e8a87828801611a98565b9350506040611e9b878288016119e3565b925050606085013567ffffffffffffffff811115611ebc57611ebb611847565b5b611ec887828801611e23565b91505092959194509250565b60008060408385031215611eeb57611eea611842565b5b6000611ef985828601611a98565b9250506020611f0a85828601611a98565b9150509250929050565b7f4e487b7100000000000000000000000000000000000000000000000000000000600052602260045260246000fd5b60006002820490506001821680611f5b57607f821691505b602082108103611f6e57611f6d611f14565b5b50919050565b7f4552433732313a20617070726f76656420717565727920666f72206e6f6e657860008201527f697374656e7420746f6b656e0000000000000000000000000000000000000000602082015250565b6000611fd0602c83611912565b9150611fdb82611f74565b604082019050919050565b60006020820190508181036000830152611fff81611fc3565b9050919050565b7f4552433732313a20617070726f76616c20746f2063757272656e74206f776e6560008201527f7200000000000000000000000000000000000000000000000000000000000000602082015250565b6000612062602183611912565b915061206d82612006565b604082019050919050565b6000602082019050818103600083015261209181612055565b9050919050565b7f4552433732313a20617070726f76652063616c6c6572206973206e6f74206f7760008201527f6e6572206e6f7220617070726f76656420666f7220616c6c0000000000000000602082015250565b60006120f4603883611912565b91506120ff82612098565b604082019050919050565b60006020820190508181036000830152612123816120e7565b9050919050565b7f4552433732313a207472616e736665722063616c6c6572206973206e6f74206f60008201527f776e6572206e6f7220617070726f766564000000000000000000000000000000602082015250565b6000612186603183611912565b91506121918261212a565b604082019050919050565b600060208201905081810360008301526121b581612179565b9050919050565b7f4552433732313a206f776e657220717565727920666f72206e6f6e657869737460008201527f656e7420746f6b656e0000000000000000000000000000000000000000000000602082015250565b6000612218602983611912565b9150612223826121bc565b604082019050919050565b600060208201905081810360008301526122478161220b565b9050919050565b7f4552433732313a2062616c616e636520717565727920666f7220746865207a6560008201527f726f206164647265737300000000000000000000000000000000000000000000602082015250565b60006122aa602a83611912565b91506122b58261224e565b604082019050919050565b600060208201905081810360008301526122d98161229d565b9050919050565b60008190508160005260206000209050919050565b60006020601f8301049050919050565b600082821b905092915050565b6000600883026123427fffffffffffffffffffffffffffffffffffffffffffffffffffffffffffffffff82612305565b61234c8683612305565b95508019841693508086168417925050509392505050565b6000819050919050565b600061238961238461237f846119c2565b612364565b6119c2565b9050919050565b6000819050919050565b6123a38361236e565b6123b76123af82612390565b848454612312565b825550505050565b600090565b6123cc6123bf565b6123d781848461239a565b505050565b5b818110156123fb576123f06000826123c4565b6001810190506123dd565b5050565b601f82111561244057612411816122e0565b61241a846122f5565b81016020851015612429578190505b61243d612435856122f5565b8301826123dc565b50505b505050565b600082821c905092915050565b600061246360001984600802612445565b1980831691505092915050565b600061247c8383612452565b9150826002028217905092915050565b61249582611907565b67ffffffffffffffff8111156124ae576124ad611ba1565b5b6124b88254611f43565b6124c38282856123ff565b600060209050601f8311600181146124f657600084156124e4578287015190505b6124ee8582612470565b865550612556565b601f198416612504866122e0565b60005b8281101561252c57848901518255600182019150602085019450602081019050612507565b868310156125495784890151612545601f891682612452565b8355505b6001600288020188555050505b505050505050565b7f4e487b7100000000000000000000000000000000000000000000000000000000600052601160045260246000fd5b6000612598826119c2565b91507fffffffffffffffffffffffffffffffffffffffffffffffffffffffffffffffff82036125ca576125c961255e565b5b600182019050919050565b7f4552433732313a20617070726f766520746f2063616c6c657200000000000000600082015250565b600061260b601983611912565b9150612616826125d5565b602082019050919050565b6000602082019050818103600083015261263a816125fe565b9050919050565b7f4552433732314d657461646174613a2055524920717565727920666f72206e6f60008201527f6e6578697374656e7420746f6b656e0000000000000000000000000000000000602082015250565b600061269d602f83611912565b91506126a882612641565b604082019050919050565b600060208201905081810360008301526126cc81612690565b9050919050565b600081905092915050565b60006126e982611907565b6126f381856126d3565b9350612703818560208601611923565b80840191505092915050565b600061271b82856126de565b915061272782846126de565b91508190509392505050565b7f4552433732313a206f70657261746f7220717565727920666f72206e6f6e657860008201527f697374656e7420746f6b656e0000000000000000000000000000000000000000602082015250565b600061278f602c83611912565b915061279a82612733565b604082019050919050565b600060208201905081810360008301526127be81612782565b9050919050565b7f4552433732313a207472616e73666572206f6620746f6b656e2074686174206960008201527f73206e6f74206f776e0000000000000000000000000000000000000000000000602082015250565b6000612821602983611912565b915061282c826127c5565b604082019050919050565b6000602082019050818103600083015261285081612814565b9050919050565b7f4552433732313a207472616e7366657220746f20746865207a65726f2061646460008201527f7265737300000000000000000000000000000000000000000000000000000000602082015250565b60006128b3602483611912565b91506128be82612857565b604082019050919050565b600060208201905081810360008301526128e2816128a6565b9050919050565b60006128f4826119c2565b91506128ff836119c2565b9250828210156129125761291161255e565b5b828203905092915050565b6000612928826119c2565b9150612933836119c2565b9250827fffffffffffffffffffffffffffffffffffffffffffffffffffffffffffffffff038211156129685761296761255e565b5b828201905092915050565b7f4552433732313a206d696e7420746f20746865207a65726f2061646472657373600082015250565b60006129a9602083611912565b91506129b482612973565b602082019050919050565b600060208201905081810360008301526129d88161299c565b9050919050565b7f4552433732313a20746f6b656e20616c7265616479206d696e74656400000000600082015250565b6000612a15601c83611912565b9150612a20826129df565b602082019050919050565b60006020820190508181036000830152612a4481612a08565b9050919050565b7f4552433732313a207472616e7366657220746f206e6f6e20455243373231526560008201527f63656976657220696d706c656d656e7465720000000000000000000000000000602082015250565b6000612aa7603283611912565b9150612ab282612a4b565b604082019050919050565b60006020820190508181036000830152612ad681612a9a565b9050919050565b7f4e487b7100000000000000000000000000000000000000000000000000000000600052601260045260246000fd5b6000612b17826119c2565b9150612b22836119c2565b925082612b3257612b31612add565b5b828204905092915050565b6000612b48826119c2565b9150612b53836119c2565b925082612b6357612b62612add565b5b828206905092915050565b7f4e487b7100000000000000000000000000000000000000000000000000000000600052603260045260246000fd5b600081519050919050565b600082825260208201905092915050565b6000612bc482612b9d565b612bce8185612ba8565b9350612bde818560208601611923565b612be781611956565b840191505092915050565b6000608082019050612c076000830187611a57565b612c146020830186611a57565b612c216040830185611b6d565b8181036060830152612c338184612bb9565b905095945050505050565b600081519050612c4d81611878565b92915050565b600060208284031215612c6957612c68611842565b5b6000612c7784828501612c3e565b9150509291505056fea264697066735822122058f65b7ca73aaa4a2e5119a35b7ce49a0a15b5ea45886faf85fd123bea20b40b64736f6c634300080f0033",
  "immutableReferences": {},
  "source": "pragma solidity ^0.8.0;\n\nimport \"@openzeppelin/contracts/token/ERC721/ERC721.sol\";\n\ncontract PersonId is ERC721 {\n\n    string[] public names;\n    string[] public data;\n    uint256 public tokenCounter;\n\n    constructor() ERC721(\"PersonId\", \"PID\"){\n        tokenCounter = 1;\n    }\n\n    function mint(string memory _name, string memory _data) public {\n        names.push(_name);\n        data.push(_data);\n        _mint(msg.sender, tokenCounter);\n        tokenCounter++;\n    }\n}",
  "sourcePath": "C:\\Users\\jaiof\\Desktop\\Crypto-Identity-master\\Crypto-Identity-master\\src\\contracts\\PersonId.sol",
  "compiler": {
    "name": "solc",
    "version": "0.8.15+commit.e14f2714.Emscripten.clang"
  },
  "schemaVersion": "3.4.8",
  "updatedAt": "2022-07-21T07:09:45.524Z",
  "devdoc": {
    "kind": "dev",
    "methods": {
      "approve(address,uint256)": {
        "details": "See {IERC721-approve}."
      },
      "balanceOf(address)": {
        "details": "See {IERC721-balanceOf}."
      },
      "getApproved(uint256)": {
        "details": "See {IERC721-getApproved}."
      },
      "isApprovedForAll(address,address)": {
        "details": "See {IERC721-isApprovedForAll}."
      },
      "name()": {
        "details": "See {IERC721Metadata-name}."
      },
      "ownerOf(uint256)": {
        "details": "See {IERC721-ownerOf}."
      },
      "safeTransferFrom(address,address,uint256)": {
        "details": "See {IERC721-safeTransferFrom}."
      },
      "safeTransferFrom(address,address,uint256,bytes)": {
        "details": "See {IERC721-safeTransferFrom}."
      },
      "setApprovalForAll(address,bool)": {
        "details": "See {IERC721-setApprovalForAll}."
      },
      "supportsInterface(bytes4)": {
        "details": "See {IERC165-supportsInterface}."
      },
      "symbol()": {
        "details": "See {IERC721Metadata-symbol}."
      },
      "tokenURI(uint256)": {
        "details": "See {IERC721Metadata-tokenURI}."
      },
      "transferFrom(address,address,uint256)": {
        "details": "See {IERC721-transferFrom}."
      }
    },
    "version": 1
  },
  "userdoc": {
    "kind": "user",
    "methods": {},
    "version": 1
  }
}